{
  "_format": "hh-sol-artifact-1",
  "contractName": "CampaignFactory",
  "sourceName": "contracts/Campaign.sol",
  "abi": [
    {
      "inputs": [
        {
          "internalType": "uint256",
          "name": "minimum",
          "type": "uint256"
        },
        {
          "internalType": "string",
          "name": "name",
          "type": "string"
        },
        {
          "internalType": "string",
          "name": "description",
          "type": "string"
        },
        {
          "internalType": "string",
          "name": "image",
          "type": "string"
        },
        {
          "internalType": "uint256",
          "name": "target",
          "type": "uint256"
        }
      ],
      "name": "createCampaign",
      "outputs": [],
      "stateMutability": "nonpayable",
      "type": "function"
    },
    {
      "inputs": [
        {
          "internalType": "uint256",
          "name": "",
          "type": "uint256"
        }
      ],
      "name": "deployedCampaigns",
      "outputs": [
        {
          "internalType": "contract Campaign",
          "name": "",
          "type": "address"
        }
      ],
      "stateMutability": "view",
      "type": "function"
    },
    {
      "inputs": [],
      "name": "getDeployedCampaigns",
      "outputs": [
        {
          "internalType": "contract Campaign[]",
          "name": "",
          "type": "address[]"
        }
      ],
      "stateMutability": "view",
      "type": "function"
    }
  ],
  "bytecode": "0x608060405234801561001057600080fd5b506118b1806100206000396000f3fe608060405234801561001057600080fd5b50600436106100415760003560e01c8063339d50a5146100465780634acb9d4f1461006f578063d4ddd71a14610084575b600080fd5b610059610054366004610248565b610099565b604051610066919061038e565b60405180910390f35b6100776100c3565b6040516100669190610341565b610097610092366004610260565b610125565b005b600081815481106100a957600080fd5b6000918252602090912001546001600160a01b0316905081565b6060600080548060200260200160405190810160405280929190818152602001828054801561011b57602002820191906000526020600020905b81546001600160a01b031681526001909101906020018083116100fd575b5050505050905090565b6000853386868686604051610139906101ba565b610148969594939291906103a2565b604051809103906000f080158015610164573d6000803e3d6000fd5b50600080546001810182559080527f290decd9548b62a8d60345a988386fc84ba6bc95484008f6362f93160ef3e5630180546001600160a01b0319166001600160a01b0392909216919091179055505050505050565b61145f8061041d83390190565b600082601f8301126101d7578081fd5b813567ffffffffffffffff808211156101f2576101f2610406565b604051601f8301601f19168101602001828111828210171561021657610216610406565b60405282815284830160200186101561022d578384fd5b82602086016020830137918201602001929092529392505050565b600060208284031215610259578081fd5b5035919050565b600080600080600060a08688031215610277578081fd5b85359450602086013567ffffffffffffffff80821115610295578283fd5b6102a189838a016101c7565b955060408801359150808211156102b6578283fd5b6102c289838a016101c7565b945060608801359150808211156102d7578283fd5b506102e4888289016101c7565b95989497509295608001359392505050565b60008151808452815b8181101561031b576020818501810151868301820152016102ff565b8181111561032c5782602083870101525b50601f01601f19169290920160200192915050565b6020808252825182820181905260009190848201906040850190845b818110156103825783516001600160a01b03168352928401929184019160010161035d565b50909695505050505050565b6001600160a01b0391909116815260200190565b8681526001600160a01b038616602082015260c0604082018190526000906103cc908301876102f6565b82810360608401526103de81876102f6565b905082810360808401526103f281866102f6565b9150508260a0830152979650505050505050565b634e487b7160e01b600052604160045260246000fdfe60806040526000600a553480156200001657600080fd5b506040516200145f3803806200145f8339810160408190526200003991620001fb565b600180546001600160a01b0319166001600160a01b038716179055600286905583516200006e906003906020870190620000aa565b50825162000084906004906020860190620000aa565b5081516200009a906005906020850190620000aa565b50600655506200030e9350505050565b828054620000b890620002bb565b90600052602060002090601f016020900481019282620000dc576000855562000127565b82601f10620000f757805160ff191683800117855562000127565b8280016001018555821562000127579182015b82811115620001275782518255916020019190600101906200010a565b506200013592915062000139565b5090565b5b808211156200013557600081556001016200013a565b600082601f83011262000161578081fd5b81516001600160401b03808211156200017e576200017e620002f8565b6040516020601f8401601f1916820181018381118382101715620001a657620001a6620002f8565b6040528382528584018101871015620001bd578485fd5b8492505b83831015620001e05785830181015182840182015291820191620001c1565b83831115620001f157848185840101525b5095945050505050565b60008060008060008060c0878903121562000214578182fd5b865160208801519096506001600160a01b038116811462000233578283fd5b60408801519095506001600160401b038082111562000250578384fd5b6200025e8a838b0162000150565b9550606089015191508082111562000274578384fd5b620002828a838b0162000150565b9450608089015191508082111562000298578384fd5b50620002a789828a0162000150565b92505060a087015190509295509295509295565b600281046001821680620002d057607f821691505b60208210811415620002f257634e487b7160e01b600052602260045260246000fd5b50919050565b634e487b7160e01b600052604160045260246000fd5b611141806200031e6000396000f3fe60806040526004361061012a5760003560e01c806382fde093116100ab578063aa8c217c1161006f578063aa8c217c14610323578063aba8315014610338578063b2a87fc31461034d578063d7bb99ba14610362578063d7d1bbdb1461036a578063feed55611461038a5761012a565b806382fde093146102af5780638a9cfd55146102c4578063937e09b1146102e457806397654a8c146102f95780639fb42b1f1461030e5761012a565b80634051ddac116100f25780634051ddac146101f9578063481c6a75146102255780636ac5ed29146102475780637e7cd1b31461025c57806381d12c581461027e5761012a565b8063034410061461012f5780630a144391146101515780631b70d517146101875780633410452a146101a95780633cb5d100146101cb575b600080fd5b34801561013b57600080fd5b5061014f61014a366004610e79565b61039f565b005b34801561015d57600080fd5b5061017161016c366004610d9e565b610542565b60405161017e9190610f61565b60405180910390f35b34801561019357600080fd5b5061019c610557565b60405161017e9190610f09565b3480156101b557600080fd5b506101be6105cc565b60405161017e9190610fbf565b3480156101d757600080fd5b506101eb6101e6366004610e79565b6105d2565b60405161017e929190610ef0565b34801561020557600080fd5b5061020e61060a565b60405161017e9b9a99989796959493929190610fc8565b34801561023157600080fd5b5061023a610818565b60405161017e9190610edc565b34801561025357600080fd5b506101be610827565b34801561026857600080fd5b5061027161082d565b60405161017e9190610f6c565b34801561028a57600080fd5b5061029e610299366004610e79565b6108bb565b60405161017e959493929190610f7f565b3480156102bb57600080fd5b506101be61099a565b3480156102d057600080fd5b5061014f6102df366004610dbf565b6109a0565b3480156102f057600080fd5b506101be610a5c565b34801561030557600080fd5b50610271610a62565b34801561031a57600080fd5b506101be610a6f565b34801561032f57600080fd5b506101be610a75565b34801561034457600080fd5b50610271610a7b565b34801561035957600080fd5b506101be610a88565b61014f610a8e565b34801561037657600080fd5b5061014f610385366004610e79565b610be1565b34801561039657600080fd5b506101be610ce3565b6001546001600160a01b031633146103b657600080fd5b60026009546103c59190611069565b600082815481106103e657634e487b7160e01b600052603260045260246000fd5b906000526020600020906005020160030154101561040357600080fd5b6000818154811061042457634e487b7160e01b600052603260045260246000fd5b906000526020600020906005020160020160149054906101000a900460ff161561044d57600080fd5b600080828154811061046f57634e487b7160e01b600052603260045260246000fd5b6000918252602082206002600590920201015481546001600160a01b03909116925082916108fc91859081106104b557634e487b7160e01b600052603260045260246000fd5b9060005260206000209060050201600101549081150290604051600060405180830381858888f193505050501580156104f2573d6000803e3d6000fd5b5060016000838154811061051657634e487b7160e01b600052603260045260246000fd5b906000526020600020906005020160020160146101000a81548160ff0219169083151502179055505050565b60086020526000908152604090205460ff1681565b60606007805480602002602001604051908101604052809291908181526020016000905b828210156105c3576000848152602090819020604080518082019091526002850290910180546001600160a01b0316825260019081015482840152908352909201910161057b565b50505050905090565b60005490565b600781815481106105e257600080fd5b6000918252602090912060029091020180546001909101546001600160a01b03909116915082565b60008060008060006060806060600080600060025447600080549050600954600160009054906101000a90046001600160a01b0316600360046005600780549050600654600a5485805461065d90611089565b80601f016020809104026020016040519081016040528092919081815260200182805461068990611089565b80156106d65780601f106106ab576101008083540402835291602001916106d6565b820191906000526020600020905b8154815290600101906020018083116106b957829003601f168201915b505050505095508480546106e990611089565b80601f016020809104026020016040519081016040528092919081815260200182805461071590611089565b80156107625780601f1061073757610100808354040283529160200191610762565b820191906000526020600020905b81548152906001019060200180831161074557829003601f168201915b5050505050945083805461077590611089565b80601f01602080910402602001604051908101604052809291908181526020018280546107a190611089565b80156107ee5780601f106107c3576101008083540402835291602001916107ee565b820191906000526020600020905b8154815290600101906020018083116107d157829003601f168201915b505050505093509a509a509a509a509a509a509a509a509a509a509a50909192939495969798999a565b6001546001600160a01b031681565b600b5490565b6003805461083a90611089565b80601f016020809104026020016040519081016040528092919081815260200182805461086690611089565b80156108b35780601f10610888576101008083540402835291602001916108b3565b820191906000526020600020905b81548152906001019060200180831161089657829003601f168201915b505050505081565b600081815481106108cb57600080fd5b90600052602060002090600502016000915090508060000180546108ee90611089565b80601f016020809104026020016040519081016040528092919081815260200182805461091a90611089565b80156109675780601f1061093c57610100808354040283529160200191610967565b820191906000526020600020905b81548152906001019060200180831161094a57829003601f168201915b5050505060018301546002840154600390940154929390926001600160a01b0382169250600160a01b90910460ff169085565b60095481565b6001546001600160a01b031633146109b757600080fd5b60008054600101808255818052600b54829181106109e557634e487b7160e01b600052603260045260246000fd5b600091825260209182902086516005909202019250610a0991839190870190610ce9565b5060018181018490556002820180546001600160a01b0319166001600160a01b0385161760ff60a01b19169055600060038301819055600b8054909190610a51908490611051565b909155505050505050565b60025481565b6004805461083a90611089565b600b5481565b600a5481565b6005805461083a90611089565b60065481565b600254341015610a9d57600080fd5b3360008181526008602090815260408083208054600160ff19909116811790915581518083019092529381523491810191825260078054948501815580845281517fa66cc928b5edb82af9bd49922954155ab7b0942694bea4ce44661d9a8736c688600290960295860180546001600160a01b0319166001600160a01b0390921691909117905591517fa66cc928b5edb82af9bd49922954155ab7b0942694bea4ce44661d9a8736c68990940193909355549091905b80831015610bc55760078381548110610b7c57634e487b7160e01b600052603260045260246000fd5b60009182526020909120600290910201546001600160a01b0316331415610bb35760098054906000610bad836110c4565b91905055505b610bbe600184611051565b9250610b53565b34600a6000828254610bd79190611051565b9091555050505050565b3360009081526008602052604090205460ff16610bfd57600080fd5b60008181548110610c1e57634e487b7160e01b600052603260045260246000fd5b600091825260208083203384526004600590930201919091019052604090205460ff1615610c4b57600080fd5b600160008281548110610c6e57634e487b7160e01b600052603260045260246000fd5b60009182526020808320338452600592909202909101600401905260408120805460ff191692151592909217909155805482908110610cbd57634e487b7160e01b600052603260045260246000fd5b600091825260208220600360059092020101805491610cdb836110c4565b919050555050565b60075490565b828054610cf590611089565b90600052602060002090601f016020900481019282610d175760008555610d5d565b82601f10610d3057805160ff1916838001178555610d5d565b82800160010185558215610d5d579182015b82811115610d5d578251825591602001919060010190610d42565b50610d69929150610d6d565b5090565b5b80821115610d695760008155600101610d6e565b80356001600160a01b0381168114610d9957600080fd5b919050565b600060208284031215610daf578081fd5b610db882610d82565b9392505050565b600080600060608486031215610dd3578182fd5b833567ffffffffffffffff80821115610dea578384fd5b818601915086601f830112610dfd578384fd5b8135602082821115610e1157610e116110f5565b604051601f8301601f1916810182018481118282101715610e3457610e346110f5565b60405282815284830182018a1015610e4a578687fd5b8282860183830137918201810195909552945050509083013590610e7060408501610d82565b90509250925092565b600060208284031215610e8a578081fd5b5035919050565b60008151808452815b81811015610eb657602081850181015186830182015201610e9a565b81811115610ec75782602083870101525b50601f01601f19169290920160200192915050565b6001600160a01b0391909116815260200190565b6001600160a01b03929092168252602082015260400190565b602080825282518282018190526000919060409081850190868401855b82811015610f5457815180516001600160a01b03168552860151868501529284019290850190600101610f26565b5091979650505050505050565b901515815260200190565b600060208252610db86020830184610e91565b600060a08252610f9260a0830188610e91565b6020830196909652506001600160a01b039390931660408401529015156060830152608090910152919050565b90815260200190565b60006101608d83528c60208401528b60408401528a606084015260018060a01b038a1660808401528060a08401526110028184018a610e91565b905082810360c08401526110168189610e91565b905082810360e084015261102a8188610e91565b61010084019690965250506101208101929092526101409091015298975050505050505050565b60008219821115611064576110646110df565b500190565b60008261108457634e487b7160e01b81526012600452602481fd5b500490565b60028104600182168061109d57607f821691505b602082108114156110be57634e487b7160e01b600052602260045260246000fd5b50919050565b60006000198214156110d8576110d86110df565b5060010190565b634e487b7160e01b600052601160045260246000fd5b634e487b7160e01b600052604160045260246000fdfea264697066735822122074a702b40a87ff69be7ef7494141a0037ea705d240920820e4e8ac78e6153ee864736f6c63430008000033a2646970667358221220f38f5435c011fb74a88a66fb983f17455b4ec4f0cf370d6d373ed564cbb87ef264736f6c63430008000033",
  "linkReferences": {},
  "deployedLinkReferences": {}
}