{
  "_format": "hh-sol-artifact-1",
  "contractName": "Campaign",
  "sourceName": "contracts/Campaign.sol",
  "abi": [
    {
      "inputs": [
        {
          "internalType": "uint256",
          "name": "minimum",
          "type": "uint256"
        },
        {
          "internalType": "address",
          "name": "creator",
          "type": "address"
        },
        {
          "internalType": "string",
          "name": "name",
          "type": "string"
        },
        {
          "internalType": "string",
          "name": "description",
          "type": "string"
        },
        {
          "internalType": "string",
          "name": "image",
          "type": "string"
        },
        {
          "internalType": "uint256",
          "name": "target",
          "type": "uint256"
        }
      ],
      "stateMutability": "nonpayable",
      "type": "constructor"
    },
    {
      "inputs": [],
      "name": "CampaignDescription",
      "outputs": [
        {
          "internalType": "string",
          "name": "",
          "type": "string"
        }
      ],
      "stateMutability": "view",
      "type": "function"
    },
    {
      "inputs": [],
      "name": "CampaignName",
      "outputs": [
        {
          "internalType": "string",
          "name": "",
          "type": "string"
        }
      ],
      "stateMutability": "view",
      "type": "function"
    },
    {
      "inputs": [],
      "name": "amount",
      "outputs": [
        {
          "internalType": "uint256",
          "name": "",
          "type": "uint256"
        }
      ],
      "stateMutability": "view",
      "type": "function"
    },
    {
      "inputs": [
        {
          "internalType": "uint256",
          "name": "index",
          "type": "uint256"
        }
      ],
      "name": "approveRequest",
      "outputs": [],
      "stateMutability": "nonpayable",
      "type": "function"
    },
    {
      "inputs": [
        {
          "internalType": "address",
          "name": "",
          "type": "address"
        }
      ],
      "name": "approvers",
      "outputs": [
        {
          "internalType": "bool",
          "name": "",
          "type": "bool"
        }
      ],
      "stateMutability": "view",
      "type": "function"
    },
    {
      "inputs": [],
      "name": "approversCount",
      "outputs": [
        {
          "internalType": "uint256",
          "name": "",
          "type": "uint256"
        }
      ],
      "stateMutability": "view",
      "type": "function"
    },
    {
      "inputs": [],
      "name": "contribute",
      "outputs": [],
      "stateMutability": "payable",
      "type": "function"
    },
    {
      "inputs": [
        {
          "internalType": "uint256",
          "name": "",
          "type": "uint256"
        }
      ],
      "name": "contributers",
      "outputs": [
        {
          "internalType": "address",
          "name": "",
          "type": "address"
        }
      ],
      "stateMutability": "view",
      "type": "function"
    },
    {
      "inputs": [
        {
          "internalType": "string",
          "name": "description",
          "type": "string"
        },
        {
          "internalType": "uint256",
          "name": "value",
          "type": "uint256"
        },
        {
          "internalType": "address",
          "name": "recipient",
          "type": "address"
        }
      ],
      "name": "createRequest",
      "outputs": [],
      "stateMutability": "nonpayable",
      "type": "function"
    },
    {
      "inputs": [
        {
          "internalType": "uint256",
          "name": "index",
          "type": "uint256"
        }
      ],
      "name": "finalizeRequest",
      "outputs": [],
      "stateMutability": "nonpayable",
      "type": "function"
    },
    {
      "inputs": [],
      "name": "getRequestsCount",
      "outputs": [
        {
          "internalType": "uint256",
          "name": "",
          "type": "uint256"
        }
      ],
      "stateMutability": "view",
      "type": "function"
    },
    {
      "inputs": [],
      "name": "getSummary",
      "outputs": [
        {
          "internalType": "uint256",
          "name": "",
          "type": "uint256"
        },
        {
          "internalType": "uint256",
          "name": "",
          "type": "uint256"
        },
        {
          "internalType": "uint256",
          "name": "",
          "type": "uint256"
        },
        {
          "internalType": "uint256",
          "name": "",
          "type": "uint256"
        },
        {
          "internalType": "address",
          "name": "",
          "type": "address"
        },
        {
          "internalType": "string",
          "name": "",
          "type": "string"
        },
        {
          "internalType": "string",
          "name": "",
          "type": "string"
        },
        {
          "internalType": "string",
          "name": "",
          "type": "string"
        },
        {
          "internalType": "uint256",
          "name": "",
          "type": "uint256"
        },
        {
          "internalType": "uint256",
          "name": "",
          "type": "uint256"
        }
      ],
      "stateMutability": "view",
      "type": "function"
    },
    {
      "inputs": [],
      "name": "imageUrl",
      "outputs": [
        {
          "internalType": "string",
          "name": "",
          "type": "string"
        }
      ],
      "stateMutability": "view",
      "type": "function"
    },
    {
      "inputs": [],
      "name": "manager",
      "outputs": [
        {
          "internalType": "address",
          "name": "",
          "type": "address"
        }
      ],
      "stateMutability": "view",
      "type": "function"
    },
    {
      "inputs": [],
      "name": "minimunContribution",
      "outputs": [
        {
          "internalType": "uint256",
          "name": "",
          "type": "uint256"
        }
      ],
      "stateMutability": "view",
      "type": "function"
    },
    {
      "inputs": [],
      "name": "numRequests",
      "outputs": [
        {
          "internalType": "uint256",
          "name": "",
          "type": "uint256"
        }
      ],
      "stateMutability": "view",
      "type": "function"
    },
    {
      "inputs": [
        {
          "internalType": "uint256",
          "name": "",
          "type": "uint256"
        }
      ],
      "name": "requests",
      "outputs": [
        {
          "internalType": "string",
          "name": "description",
          "type": "string"
        },
        {
          "internalType": "uint256",
          "name": "value",
          "type": "uint256"
        },
        {
          "internalType": "address",
          "name": "recipient",
          "type": "address"
        },
        {
          "internalType": "bool",
          "name": "complete",
          "type": "bool"
        },
        {
          "internalType": "uint256",
          "name": "approvalCount",
          "type": "uint256"
        }
      ],
      "stateMutability": "view",
      "type": "function"
    },
    {
      "inputs": [],
      "name": "targetToAchieve",
      "outputs": [
        {
          "internalType": "uint256",
          "name": "",
          "type": "uint256"
        }
      ],
      "stateMutability": "view",
      "type": "function"
    },
    {
      "inputs": [],
      "name": "viewRequest",
      "outputs": [
        {
          "internalType": "uint256",
          "name": "",
          "type": "uint256"
        }
      ],
      "stateMutability": "view",
      "type": "function"
    }
  ],
  "bytecode": "0x60806040526000600a553480156200001657600080fd5b506040516200121b3803806200121b8339810160408190526200003991620001fb565b600180546001600160a01b0319166001600160a01b038716179055600286905583516200006e906003906020870190620000aa565b50825162000084906004906020860190620000aa565b5081516200009a906005906020850190620000aa565b50600655506200030e9350505050565b828054620000b890620002bb565b90600052602060002090601f016020900481019282620000dc576000855562000127565b82601f10620000f757805160ff191683800117855562000127565b8280016001018555821562000127579182015b82811115620001275782518255916020019190600101906200010a565b506200013592915062000139565b5090565b5b808211156200013557600081556001016200013a565b600082601f83011262000161578081fd5b81516001600160401b03808211156200017e576200017e620002f8565b6040516020601f8401601f1916820181018381118382101715620001a657620001a6620002f8565b6040528382528584018101871015620001bd578485fd5b8492505b83831015620001e05785830181015182840182015291820191620001c1565b83831115620001f157848185840101525b5095945050505050565b60008060008060008060c0878903121562000214578182fd5b865160208801519096506001600160a01b038116811462000233578283fd5b60408801519095506001600160401b038082111562000250578384fd5b6200025e8a838b0162000150565b9550606089015191508082111562000274578384fd5b620002828a838b0162000150565b9450608089015191508082111562000298578384fd5b50620002a789828a0162000150565b92505060a087015190509295509295509295565b600281046001821680620002d057607f821691505b60208210811415620002f257634e487b7160e01b600052602260045260246000fd5b50919050565b634e487b7160e01b600052604160045260246000fd5b610efd806200031e6000396000f3fe6080604052600436106101145760003560e01c806382fde093116100a0578063aa8c217c11610064578063aa8c217c146102dc578063aba83150146102f1578063b2a87fc314610306578063d7bb99ba1461031b578063d7d1bbdb1461032357610114565b806382fde093146102685780638a9cfd551461027d57806397654a8c1461029d5780639fb42b1f146102b2578063a7f33715146102c757610114565b80634051ddac116100e75780634051ddac146101c0578063481c6a75146101eb5780636ac5ed29146102005780637e7cd1b31461021557806381d12c581461023757610114565b806303441006146101195780630a1443911461013b5780631fbed579146101715780633410452a1461019e575b600080fd5b34801561012557600080fd5b50610139610134366004610cb1565b610343565b005b34801561014757600080fd5b5061015b610156366004610bd6565b6104e5565b6040516101689190610d28565b60405180910390f35b34801561017d57600080fd5b5061019161018c366004610cb1565b6104fa565b6040516101689190610d14565b3480156101aa57600080fd5b506101b3610524565b6040516101689190610d86565b3480156101cc57600080fd5b506101d561052a565b6040516101689a99989796959493929190610d8f565b3480156101f757600080fd5b5061019161072b565b34801561020c57600080fd5b506101b361073a565b34801561022157600080fd5b5061022a610740565b6040516101689190610d33565b34801561024357600080fd5b50610257610252366004610cb1565b6107ce565b604051610168959493929190610d46565b34801561027457600080fd5b506101b36108ad565b34801561028957600080fd5b50610139610298366004610bf7565b6108b3565b3480156102a957600080fd5b5061022a61096f565b3480156102be57600080fd5b506101b361097c565b3480156102d357600080fd5b506101b3610982565b3480156102e857600080fd5b506101b3610988565b3480156102fd57600080fd5b5061022a61098e565b34801561031257600080fd5b506101b361099b565b6101396109a1565b34801561032f57600080fd5b5061013961033e366004610cb1565b610a1f565b6001546001600160a01b0316331461035a57600080fd5b60026009546103699190610e25565b6000828154811061038a57634e487b7160e01b600052603260045260246000fd5b906000526020600020906005020160030154116103a657600080fd5b600081815481106103c757634e487b7160e01b600052603260045260246000fd5b906000526020600020906005020160020160149054906101000a900460ff16156103f057600080fd5b600080828154811061041257634e487b7160e01b600052603260045260246000fd5b6000918252602082206002600590920201015481546001600160a01b03909116925082916108fc918590811061045857634e487b7160e01b600052603260045260246000fd5b9060005260206000209060050201600101549081150290604051600060405180830381858888f19350505050158015610495573d6000803e3d6000fd5b506001600083815481106104b957634e487b7160e01b600052603260045260246000fd5b906000526020600020906005020160020160146101000a81548160ff0219169083151502179055505050565b60086020526000908152604090205460ff1681565b6007818154811061050a57600080fd5b6000918252602090912001546001600160a01b0316905081565b60005490565b6000806000806000606080606060008060025447600080549050600954600160009054906101000a90046001600160a01b03166003600460056006544784805461057390610e45565b80601f016020809104026020016040519081016040528092919081815260200182805461059f90610e45565b80156105ec5780601f106105c1576101008083540402835291602001916105ec565b820191906000526020600020905b8154815290600101906020018083116105cf57829003601f168201915b505050505094508380546105ff90610e45565b80601f016020809104026020016040519081016040528092919081815260200182805461062b90610e45565b80156106785780601f1061064d57610100808354040283529160200191610678565b820191906000526020600020905b81548152906001019060200180831161065b57829003601f168201915b5050505050935082805461068b90610e45565b80601f01602080910402602001604051908101604052809291908181526020018280546106b790610e45565b80156107045780601f106106d957610100808354040283529160200191610704565b820191906000526020600020905b8154815290600101906020018083116106e757829003601f168201915b50505050509250995099509950995099509950995099509950995090919293949596979899565b6001546001600160a01b031681565b600b5490565b6003805461074d90610e45565b80601f016020809104026020016040519081016040528092919081815260200182805461077990610e45565b80156107c65780601f1061079b576101008083540402835291602001916107c6565b820191906000526020600020905b8154815290600101906020018083116107a957829003601f168201915b505050505081565b600081815481106107de57600080fd5b906000526020600020906005020160009150905080600001805461080190610e45565b80601f016020809104026020016040519081016040528092919081815260200182805461082d90610e45565b801561087a5780601f1061084f5761010080835404028352916020019161087a565b820191906000526020600020905b81548152906001019060200180831161085d57829003601f168201915b5050505060018301546002840154600390940154929390926001600160a01b0382169250600160a01b90910460ff169085565b60095481565b6001546001600160a01b031633146108ca57600080fd5b60008054600101808255818052600b54829181106108f857634e487b7160e01b600052603260045260246000fd5b60009182526020918290208651600590920201925061091c91839190870190610b21565b5060018181018490556002820180546001600160a01b0319166001600160a01b0385161760ff60a01b19169055600060038301819055600b8054909190610964908490610e0d565b909155505050505050565b6004805461074d90610e45565b600b5481565b60025481565b600a5481565b6005805461074d90610e45565b60065481565b60025434116109af57600080fd5b6007805460018181019092557fa66cc928b5edb82af9bd49922954155ab7b0942694bea4ce44661d9a8736c6880180546001600160a01b031916339081179091556000908152600860205260408120805460ff19169092179091556009805491610a1883610e80565b9190505550565b3360009081526008602052604090205460ff16610a3b57600080fd5b60008181548110610a5c57634e487b7160e01b600052603260045260246000fd5b600091825260208083203384526004600590930201919091019052604090205460ff1615610a8957600080fd5b600160008281548110610aac57634e487b7160e01b600052603260045260246000fd5b60009182526020808320338452600592909202909101600401905260408120805460ff191692151592909217909155805482908110610afb57634e487b7160e01b600052603260045260246000fd5b600091825260208220600360059092020101805491610b1983610e80565b919050555050565b828054610b2d90610e45565b90600052602060002090601f016020900481019282610b4f5760008555610b95565b82601f10610b6857805160ff1916838001178555610b95565b82800160010185558215610b95579182015b82811115610b95578251825591602001919060010190610b7a565b50610ba1929150610ba5565b5090565b5b80821115610ba15760008155600101610ba6565b80356001600160a01b0381168114610bd157600080fd5b919050565b600060208284031215610be7578081fd5b610bf082610bba565b9392505050565b600080600060608486031215610c0b578182fd5b833567ffffffffffffffff80821115610c22578384fd5b818601915086601f830112610c35578384fd5b8135602082821115610c4957610c49610eb1565b604051601f8301601f1916810182018481118282101715610c6c57610c6c610eb1565b60405282815284830182018a1015610c82578687fd5b8282860183830137918201810195909552945050509083013590610ca860408501610bba565b90509250925092565b600060208284031215610cc2578081fd5b5035919050565b60008151808452815b81811015610cee57602081850181015186830182015201610cd2565b81811115610cff5782602083870101525b50601f01601f19169290920160200192915050565b6001600160a01b0391909116815260200190565b901515815260200190565b600060208252610bf06020830184610cc9565b600060a08252610d5960a0830188610cc9565b6020830196909652506001600160a01b039390931660408401529015156060830152608090910152919050565b90815260200190565b60006101408c83528b60208401528a604084015289606084015260018060a01b03891660808401528060a0840152610dc981840189610cc9565b905082810360c0840152610ddd8188610cc9565b905082810360e0840152610df18187610cc9565b6101008401959095525050610120015298975050505050505050565b60008219821115610e2057610e20610e9b565b500190565b600082610e4057634e487b7160e01b81526012600452602481fd5b500490565b600281046001821680610e5957607f821691505b60208210811415610e7a57634e487b7160e01b600052602260045260246000fd5b50919050565b6000600019821415610e9457610e94610e9b565b5060010190565b634e487b7160e01b600052601160045260246000fd5b634e487b7160e01b600052604160045260246000fdfea2646970667358221220f01b1652f4ac6a8176d51420d98c34058b06bed12de10e6ac1dda2f777c0902464736f6c63430008000033",
  "linkReferences": {},
  "deployedLinkReferences": {}
}