{
  "_format": "hh-sol-artifact-1",
  "contractName": "CampaignFactory",
  "sourceName": "contracts/Campaign.sol",
  "abi": [
    {
      "inputs": [
        {
          "internalType": "uint256",
          "name": "minimum",
          "type": "uint256"
        },
        {
          "internalType": "string",
          "name": "name",
          "type": "string"
        },
        {
          "internalType": "string",
          "name": "description",
          "type": "string"
        },
        {
          "internalType": "string",
          "name": "image",
          "type": "string"
        },
        {
          "internalType": "uint256",
          "name": "target",
          "type": "uint256"
        }
      ],
      "name": "createCampaign",
      "outputs": [],
      "stateMutability": "nonpayable",
      "type": "function"
    },
    {
      "inputs": [
        {
          "internalType": "uint256",
          "name": "",
          "type": "uint256"
        }
      ],
      "name": "deployedCampaigns",
      "outputs": [
        {
          "internalType": "contract Campaign",
          "name": "",
          "type": "address"
        }
      ],
      "stateMutability": "view",
      "type": "function"
    },
    {
      "inputs": [],
      "name": "getDeployedCampaigns",
      "outputs": [
        {
          "internalType": "contract Campaign[]",
          "name": "",
          "type": "address[]"
        }
      ],
      "stateMutability": "view",
      "type": "function"
    }
  ],
  "bytecode": "0x608060405234801561001057600080fd5b506115c5806100206000396000f3fe608060405234801561001057600080fd5b50600436106100415760003560e01c8063339d50a5146100465780634acb9d4f1461006f578063d4ddd71a14610084575b600080fd5b610059610054366004610248565b610099565b604051610066919061038e565b60405180910390f35b6100776100c3565b6040516100669190610341565b610097610092366004610260565b610125565b005b600081815481106100a957600080fd5b6000918252602090912001546001600160a01b0316905081565b6060600080548060200260200160405190810160405280929190818152602001828054801561011b57602002820191906000526020600020905b81546001600160a01b031681526001909101906020018083116100fd575b5050505050905090565b6000853386868686604051610139906101ba565b610148969594939291906103a2565b604051809103906000f080158015610164573d6000803e3d6000fd5b50600080546001810182559080527f290decd9548b62a8d60345a988386fc84ba6bc95484008f6362f93160ef3e5630180546001600160a01b0319166001600160a01b0392909216919091179055505050505050565b6111738061041d83390190565b600082601f8301126101d7578081fd5b813567ffffffffffffffff808211156101f2576101f2610406565b604051601f8301601f19168101602001828111828210171561021657610216610406565b60405282815284830160200186101561022d578384fd5b82602086016020830137918201602001929092529392505050565b600060208284031215610259578081fd5b5035919050565b600080600080600060a08688031215610277578081fd5b85359450602086013567ffffffffffffffff80821115610295578283fd5b6102a189838a016101c7565b955060408801359150808211156102b6578283fd5b6102c289838a016101c7565b945060608801359150808211156102d7578283fd5b506102e4888289016101c7565b95989497509295608001359392505050565b60008151808452815b8181101561031b576020818501810151868301820152016102ff565b8181111561032c5782602083870101525b50601f01601f19169290920160200192915050565b6020808252825182820181905260009190848201906040850190845b818110156103825783516001600160a01b03168352928401929184019160010161035d565b50909695505050505050565b6001600160a01b0391909116815260200190565b8681526001600160a01b038616602082015260c0604082018190526000906103cc908301876102f6565b82810360608401526103de81876102f6565b905082810360808401526103f281866102f6565b9150508260a0830152979650505050505050565b634e487b7160e01b600052604160045260246000fdfe60806040523480156200001157600080fd5b5060405162001173380380620011738339810160408190526200003491620001f6565b600180546001600160a01b0319166001600160a01b0387161790556002869055835162000069906003906020870190620000a5565b5082516200007f906004906020860190620000a5565b50815162000095906005906020850190620000a5565b5060065550620003099350505050565b828054620000b390620002b6565b90600052602060002090601f016020900481019282620000d7576000855562000122565b82601f10620000f257805160ff191683800117855562000122565b8280016001018555821562000122579182015b828111156200012257825182559160200191906001019062000105565b506200013092915062000134565b5090565b5b8082111562000130576000815560010162000135565b600082601f8301126200015c578081fd5b81516001600160401b0380821115620001795762000179620002f3565b6040516020601f8401601f1916820181018381118382101715620001a157620001a1620002f3565b6040528382528584018101871015620001b8578485fd5b8492505b83831015620001db5785830181015182840182015291820191620001bc565b83831115620001ec57848185840101525b5095945050505050565b60008060008060008060c087890312156200020f578182fd5b865160208801519096506001600160a01b03811681146200022e578283fd5b60408801519095506001600160401b03808211156200024b578384fd5b620002598a838b016200014b565b955060608901519150808211156200026f578384fd5b6200027d8a838b016200014b565b9450608089015191508082111562000293578384fd5b50620002a289828a016200014b565b92505060a087015190509295509295509295565b600281046001821680620002cb57607f821691505b60208210811415620002ed57634e487b7160e01b600052602260045260246000fd5b50919050565b634e487b7160e01b600052604160045260246000fd5b610e5a80620003196000396000f3fe6080604052600436106100f35760003560e01c806382fde0931161008a578063aba8315011610059578063aba8315014610290578063b2a87fc3146102a5578063d7bb99ba146102ba578063d7d1bbdb146102c2576100f3565b806382fde093146102315780638a9cfd551461024657806397654a8c14610266578063a7f337151461027b576100f3565b80634051ddac116100c65780634051ddac1461019f578063481c6a75146101c95780637e7cd1b3146101de57806381d12c5814610200576100f3565b806303441006146100f85780630a1443911461011a5780631fbed579146101505780633410452a1461017d575b600080fd5b34801561010457600080fd5b50610118610113366004610c1c565b6102e2565b005b34801561012657600080fd5b5061013a610135366004610b3f565b61047f565b6040516101479190610c93565b60405180910390f35b34801561015c57600080fd5b5061017061016b366004610c1c565b610494565b6040516101479190610c7f565b34801561018957600080fd5b506101926104be565b6040516101479190610cf1565b3480156101ab57600080fd5b506101b46104c4565b60405161014799989796959493929190610cfa565b3480156101d557600080fd5b506101706106c0565b3480156101ea57600080fd5b506101f36106cf565b6040516101479190610c9e565b34801561020c57600080fd5b5061022061021b366004610c1c565b61075d565b604051610147959493929190610cb1565b34801561023d57600080fd5b5061019261083c565b34801561025257600080fd5b50610118610261366004610b62565b610842565b34801561027257600080fd5b506101f36108f0565b34801561028757600080fd5b506101926108fd565b34801561029c57600080fd5b506101f3610903565b3480156102b157600080fd5b50610192610910565b610118610916565b3480156102ce57600080fd5b506101186102dd366004610c1c565b610994565b6001546001600160a01b031633146102f957600080fd5b60026009546103089190610d74565b6000828154811061032957634e487b7160e01b600052603260045260246000fd5b9060005260206000209060050201600301541161034557600080fd5b6000818154811061036657634e487b7160e01b600052603260045260246000fd5b906000526020600020906005020160020160149054906101000a900460ff161561038f57600080fd5b600081815481106103b057634e487b7160e01b600052603260045260246000fd5b6000918252602082206002600590920201015481546001600160a01b03909116916108fc91849081106103f357634e487b7160e01b600052603260045260246000fd5b9060005260206000209060050201600101549081150290604051600060405180830381858888f19350505050158015610430573d6000803e3d6000fd5b5060016000828154811061045457634e487b7160e01b600052603260045260246000fd5b906000526020600020906005020160020160146101000a81548160ff02191690831515021790555050565b60086020526000908152604090205460ff1681565b600781815481106104a457600080fd5b6000918252602090912001546001600160a01b0316905081565b60005490565b60008060008060006060806060600060025447600080549050600954600160009054906101000a90046001600160a01b031660036004600560065483805461050b90610d94565b80601f016020809104026020016040519081016040528092919081815260200182805461053790610d94565b80156105845780601f1061055957610100808354040283529160200191610584565b820191906000526020600020905b81548152906001019060200180831161056757829003601f168201915b5050505050935082805461059790610d94565b80601f01602080910402602001604051908101604052809291908181526020018280546105c390610d94565b80156106105780601f106105e557610100808354040283529160200191610610565b820191906000526020600020905b8154815290600101906020018083116105f357829003601f168201915b5050505050925081805461062390610d94565b80601f016020809104026020016040519081016040528092919081815260200182805461064f90610d94565b801561069c5780601f106106715761010080835404028352916020019161069c565b820191906000526020600020905b81548152906001019060200180831161067f57829003601f168201915b50505050509150985098509850985098509850985098509850909192939495969798565b6001546001600160a01b031681565b600380546106dc90610d94565b80601f016020809104026020016040519081016040528092919081815260200182805461070890610d94565b80156107555780601f1061072a57610100808354040283529160200191610755565b820191906000526020600020905b81548152906001019060200180831161073857829003601f168201915b505050505081565b6000818154811061076d57600080fd5b906000526020600020906005020160009150905080600001805461079090610d94565b80601f01602080910402602001604051908101604052809291908181526020018280546107bc90610d94565b80156108095780601f106107de57610100808354040283529160200191610809565b820191906000526020600020905b8154815290600101906020018083116107ec57829003601f168201915b5050505060018301546002840154600390940154929390926001600160a01b0382169250600160a01b90910460ff169085565b60095481565b6001546001600160a01b0316331461085957600080fd5b600a80546000918291908261086d83610dcf565b919050558154811061088f57634e487b7160e01b600052603260045260246000fd5b6000918252602091829020865160059092020192506108b391839190870190610a96565b5060018101929092556002820180546001600160a01b0319166001600160a01b03929092169190911760ff60a01b19169055600060039091015550565b600480546106dc90610d94565b60025481565b600580546106dc90610d94565b60065481565b600254341161092457600080fd5b6007805460018181019092557fa66cc928b5edb82af9bd49922954155ab7b0942694bea4ce44661d9a8736c6880180546001600160a01b031916339081179091556000908152600860205260408120805460ff1916909217909155600980549161098d83610dcf565b9190505550565b3360009081526008602052604090205460ff166109b057600080fd5b600081815481106109d157634e487b7160e01b600052603260045260246000fd5b600091825260208083203384526004600590930201919091019052604090205460ff16156109fe57600080fd5b600160008281548110610a2157634e487b7160e01b600052603260045260246000fd5b60009182526020808320338452600592909202909101600401905260408120805460ff191692151592909217909155805482908110610a7057634e487b7160e01b600052603260045260246000fd5b600091825260208220600360059092020101805491610a8e83610dcf565b919050555050565b828054610aa290610d94565b90600052602060002090601f016020900481019282610ac45760008555610b0a565b82601f10610add57805160ff1916838001178555610b0a565b82800160010185558215610b0a579182015b82811115610b0a578251825591602001919060010190610aef565b50610b16929150610b1a565b5090565b5b80821115610b165760008155600101610b1b565b8035610b3a81610e0c565b919050565b600060208284031215610b50578081fd5b8135610b5b81610e0c565b9392505050565b600080600060608486031215610b76578182fd5b833567ffffffffffffffff80821115610b8d578384fd5b818601915086601f830112610ba0578384fd5b8135602082821115610bb457610bb4610df6565b604051601f8301601f1916810182018481118282101715610bd757610bd7610df6565b60405282815284830182018a1015610bed578687fd5b8282860183830137918201810195909552945050509083013590610c1360408501610b2f565b90509250925092565b600060208284031215610c2d578081fd5b5035919050565b60008151808452815b81811015610c5957602081850181015186830182015201610c3d565b81811115610c6a5782602083870101525b50601f01601f19169290920160200192915050565b6001600160a01b0391909116815260200190565b901515815260200190565b600060208252610b5b6020830184610c34565b600060a08252610cc460a0830188610c34565b6020830196909652506001600160a01b039390931660408401529015156060830152608090910152919050565b90815260200190565b60006101208b83528a602084015289604084015288606084015260018060a01b03881660808401528060a0840152610d3481840188610c34565b905082810360c0840152610d488187610c34565b905082810360e0840152610d5c8186610c34565b915050826101008301529a9950505050505050505050565b600082610d8f57634e487b7160e01b81526012600452602481fd5b500490565b600281046001821680610da857607f821691505b60208210811415610dc957634e487b7160e01b600052602260045260246000fd5b50919050565b6000600019821415610def57634e487b7160e01b81526011600452602481fd5b5060010190565b634e487b7160e01b600052604160045260246000fd5b6001600160a01b0381168114610e2157600080fd5b5056fea2646970667358221220a9e4b60bb95fa1040a0e89ddc137e0e700f4da4acfccb7ddbadc0ae0737fbc5664736f6c63430008000033a2646970667358221220ec6612c0347233f02c054be534332db9c85a09e7bc767a752014e0879daa43c364736f6c63430008000033",
  "linkReferences": {},
  "deployedLinkReferences": {}
}