{
  "_format": "hh-sol-artifact-1",
  "contractName": "Campaign",
  "sourceName": "contracts/Campaign.sol",
  "abi": [
    {
      "inputs": [
        {
          "internalType": "uint256",
          "name": "minimum",
          "type": "uint256"
        },
        {
          "internalType": "address",
          "name": "creator",
          "type": "address"
        },
        {
          "internalType": "string",
          "name": "name",
          "type": "string"
        },
        {
          "internalType": "string",
          "name": "description",
          "type": "string"
        },
        {
          "internalType": "string",
          "name": "image",
          "type": "string"
        },
        {
          "internalType": "uint256",
          "name": "target",
          "type": "uint256"
        }
      ],
      "stateMutability": "nonpayable",
      "type": "constructor"
    },
    {
      "anonymous": false,
      "inputs": [
        {
          "indexed": false,
          "internalType": "address",
          "name": "contributor",
          "type": "address"
        },
        {
          "indexed": false,
          "internalType": "uint256",
          "name": "amount",
          "type": "uint256"
        }
      ],
      "name": "Contributing",
      "type": "event"
    },
    {
      "inputs": [],
      "name": "CampaignDescription",
      "outputs": [
        {
          "internalType": "string",
          "name": "",
          "type": "string"
        }
      ],
      "stateMutability": "view",
      "type": "function"
    },
    {
      "inputs": [],
      "name": "CampaignName",
      "outputs": [
        {
          "internalType": "string",
          "name": "",
          "type": "string"
        }
      ],
      "stateMutability": "view",
      "type": "function"
    },
    {
      "inputs": [],
      "name": "amount",
      "outputs": [
        {
          "internalType": "uint256",
          "name": "",
          "type": "uint256"
        }
      ],
      "stateMutability": "view",
      "type": "function"
    },
    {
      "inputs": [
        {
          "internalType": "uint256",
          "name": "index",
          "type": "uint256"
        }
      ],
      "name": "approveRequest",
      "outputs": [],
      "stateMutability": "nonpayable",
      "type": "function"
    },
    {
      "inputs": [
        {
          "internalType": "address",
          "name": "",
          "type": "address"
        }
      ],
      "name": "approvers",
      "outputs": [
        {
          "internalType": "bool",
          "name": "",
          "type": "bool"
        }
      ],
      "stateMutability": "view",
      "type": "function"
    },
    {
      "inputs": [],
      "name": "approversCount",
      "outputs": [
        {
          "internalType": "uint256",
          "name": "",
          "type": "uint256"
        }
      ],
      "stateMutability": "view",
      "type": "function"
    },
    {
      "inputs": [],
      "name": "contribute",
      "outputs": [],
      "stateMutability": "payable",
      "type": "function"
    },
    {
      "inputs": [
        {
          "internalType": "uint256",
          "name": "",
          "type": "uint256"
        }
      ],
      "name": "contributors",
      "outputs": [
        {
          "internalType": "address",
          "name": "contributorAddress",
          "type": "address"
        },
        {
          "internalType": "uint256",
          "name": "value",
          "type": "uint256"
        },
        {
          "internalType": "string",
          "name": "transactionHash",
          "type": "string"
        }
      ],
      "stateMutability": "view",
      "type": "function"
    },
    {
      "inputs": [
        {
          "internalType": "string",
          "name": "description",
          "type": "string"
        },
        {
          "internalType": "uint256",
          "name": "value",
          "type": "uint256"
        },
        {
          "internalType": "address",
          "name": "recipient",
          "type": "address"
        }
      ],
      "name": "createRequest",
      "outputs": [],
      "stateMutability": "nonpayable",
      "type": "function"
    },
    {
      "inputs": [
        {
          "internalType": "uint256",
          "name": "index",
          "type": "uint256"
        }
      ],
      "name": "finalizeRequest",
      "outputs": [],
      "stateMutability": "nonpayable",
      "type": "function"
    },
    {
      "inputs": [],
      "name": "getRequestsCount",
      "outputs": [
        {
          "internalType": "uint256",
          "name": "",
          "type": "uint256"
        }
      ],
      "stateMutability": "view",
      "type": "function"
    },
    {
      "inputs": [],
      "name": "getSummary",
      "outputs": [
        {
          "internalType": "uint256",
          "name": "",
          "type": "uint256"
        },
        {
          "internalType": "uint256",
          "name": "",
          "type": "uint256"
        },
        {
          "internalType": "uint256",
          "name": "",
          "type": "uint256"
        },
        {
          "internalType": "uint256",
          "name": "",
          "type": "uint256"
        },
        {
          "internalType": "address",
          "name": "",
          "type": "address"
        },
        {
          "internalType": "string",
          "name": "",
          "type": "string"
        },
        {
          "internalType": "string",
          "name": "",
          "type": "string"
        },
        {
          "internalType": "string",
          "name": "",
          "type": "string"
        },
        {
          "internalType": "uint256",
          "name": "",
          "type": "uint256"
        },
        {
          "internalType": "uint256",
          "name": "",
          "type": "uint256"
        }
      ],
      "stateMutability": "view",
      "type": "function"
    },
    {
      "inputs": [],
      "name": "imageUrl",
      "outputs": [
        {
          "internalType": "string",
          "name": "",
          "type": "string"
        }
      ],
      "stateMutability": "view",
      "type": "function"
    },
    {
      "inputs": [],
      "name": "manager",
      "outputs": [
        {
          "internalType": "address",
          "name": "",
          "type": "address"
        }
      ],
      "stateMutability": "view",
      "type": "function"
    },
    {
      "inputs": [],
      "name": "minimunContribution",
      "outputs": [
        {
          "internalType": "uint256",
          "name": "",
          "type": "uint256"
        }
      ],
      "stateMutability": "view",
      "type": "function"
    },
    {
      "inputs": [],
      "name": "numRequests",
      "outputs": [
        {
          "internalType": "uint256",
          "name": "",
          "type": "uint256"
        }
      ],
      "stateMutability": "view",
      "type": "function"
    },
    {
      "inputs": [
        {
          "internalType": "uint256",
          "name": "",
          "type": "uint256"
        }
      ],
      "name": "requests",
      "outputs": [
        {
          "internalType": "string",
          "name": "description",
          "type": "string"
        },
        {
          "internalType": "uint256",
          "name": "value",
          "type": "uint256"
        },
        {
          "internalType": "address",
          "name": "recipient",
          "type": "address"
        },
        {
          "internalType": "bool",
          "name": "complete",
          "type": "bool"
        },
        {
          "internalType": "uint256",
          "name": "approvalCount",
          "type": "uint256"
        }
      ],
      "stateMutability": "view",
      "type": "function"
    },
    {
      "inputs": [
        {
          "internalType": "address",
          "name": "contributorAddress",
          "type": "address"
        },
        {
          "internalType": "uint256",
          "name": "value",
          "type": "uint256"
        },
        {
          "internalType": "string",
          "name": "transactionHash",
          "type": "string"
        }
      ],
      "name": "setContributorList",
      "outputs": [],
      "stateMutability": "nonpayable",
      "type": "function"
    },
    {
      "inputs": [],
      "name": "targetToAchieve",
      "outputs": [
        {
          "internalType": "uint256",
          "name": "",
          "type": "uint256"
        }
      ],
      "stateMutability": "view",
      "type": "function"
    },
    {
      "inputs": [],
      "name": "viewContributor",
      "outputs": [
        {
          "components": [
            {
              "internalType": "address",
              "name": "contributorAddress",
              "type": "address"
            },
            {
              "internalType": "uint256",
              "name": "value",
              "type": "uint256"
            },
            {
              "internalType": "string",
              "name": "transactionHash",
              "type": "string"
            }
          ],
          "internalType": "struct Campaign.Contributor[]",
          "name": "",
          "type": "tuple[]"
        }
      ],
      "stateMutability": "view",
      "type": "function"
    },
    {
      "inputs": [],
      "name": "viewRequest",
      "outputs": [
        {
          "internalType": "uint256",
          "name": "",
          "type": "uint256"
        }
      ],
      "stateMutability": "view",
      "type": "function"
    }
  ],
  "bytecode": "0x60806040526000600a553480156200001657600080fd5b506040516200165c3803806200165c8339810160408190526200003991620001fb565b600180546001600160a01b0319166001600160a01b038716179055600286905583516200006e906003906020870190620000aa565b50825162000084906004906020860190620000aa565b5081516200009a906005906020850190620000aa565b50600655506200030e9350505050565b828054620000b890620002bb565b90600052602060002090601f016020900481019282620000dc576000855562000127565b82601f10620000f757805160ff191683800117855562000127565b8280016001018555821562000127579182015b82811115620001275782518255916020019190600101906200010a565b506200013592915062000139565b5090565b5b808211156200013557600081556001016200013a565b600082601f83011262000161578081fd5b81516001600160401b03808211156200017e576200017e620002f8565b6040516020601f8401601f1916820181018381118382101715620001a657620001a6620002f8565b6040528382528584018101871015620001bd578485fd5b8492505b83831015620001e05785830181015182840182015291820191620001c1565b83831115620001f157848185840101525b5095945050505050565b60008060008060008060c0878903121562000214578182fd5b865160208801519096506001600160a01b038116811462000233578283fd5b60408801519095506001600160401b038082111562000250578384fd5b6200025e8a838b0162000150565b9550606089015191508082111562000274578384fd5b620002828a838b0162000150565b9450608089015191508082111562000298578384fd5b50620002a789828a0162000150565b92505060a087015190509295509295509295565b600281046001821680620002d057607f821691505b60208210811415620002f257634e487b7160e01b600052602260045260246000fd5b50919050565b634e487b7160e01b600052604160045260246000fd5b61133e806200031e6000396000f3fe60806040526004361061012a5760003560e01c806382fde093116100ab578063aa8c217c1161006f578063aa8c217c14610323578063aba8315014610338578063b2a87fc31461034d578063b86938b014610362578063d7bb99ba14610382578063d7d1bbdb1461038a5761012a565b806382fde093146102af5780638a9cfd55146102c457806397654a8c146102e45780639fb42b1f146102f9578063a7f337151461030e5761012a565b80634051ddac116100f25780634051ddac146101fa578063481c6a75146102255780636ac5ed29146102475780637e7cd1b31461025c57806381d12c581461027e5761012a565b8063034410061461012f5780630a144391146101515780631b70d517146101875780633410452a146101a95780633cb5d100146101cb575b600080fd5b34801561013b57600080fd5b5061014f61014a36600461103d565b6103aa565b005b34801561015d57600080fd5b5061017161016c366004610f72565b61054c565b60405161017e9190611169565b60405180910390f35b34801561019357600080fd5b5061019c610561565b60405161017e91906110e4565b3480156101b557600080fd5b506101be610672565b60405161017e91906111c7565b3480156101d757600080fd5b506101eb6101e636600461103d565b610678565b60405161017e939291906110b4565b34801561020657600080fd5b5061020f610741565b60405161017e9a999897969594939291906111d0565b34801561023157600080fd5b5061023a610947565b60405161017e91906110a0565b34801561025357600080fd5b506101be610956565b34801561026857600080fd5b5061027161095c565b60405161017e9190611174565b34801561028a57600080fd5b5061029e61029936600461103d565b6109ea565b60405161017e959493929190611187565b3480156102bb57600080fd5b506101be610ac9565b3480156102d057600080fd5b5061014f6102df366004610fe8565b610acf565b3480156102f057600080fd5b50610271610b8b565b34801561030557600080fd5b506101be610b98565b34801561031a57600080fd5b506101be610b9e565b34801561032f57600080fd5b506101be610ba4565b34801561034457600080fd5b50610271610baa565b34801561035957600080fd5b506101be610bb7565b34801561036e57600080fd5b5061014f61037d366004610f93565b610bbd565b61014f610c98565b34801561039657600080fd5b5061014f6103a536600461103d565b610d3a565b6001546001600160a01b031633146103c157600080fd5b60026009546103d09190611266565b600082815481106103f157634e487b7160e01b600052603260045260246000fd5b9060005260206000209060050201600301541161040d57600080fd5b6000818154811061042e57634e487b7160e01b600052603260045260246000fd5b906000526020600020906005020160020160149054906101000a900460ff161561045757600080fd5b600080828154811061047957634e487b7160e01b600052603260045260246000fd5b6000918252602082206002600590920201015481546001600160a01b03909116925082916108fc91859081106104bf57634e487b7160e01b600052603260045260246000fd5b9060005260206000209060050201600101549081150290604051600060405180830381858888f193505050501580156104fc573d6000803e3d6000fd5b5060016000838154811061052057634e487b7160e01b600052603260045260246000fd5b906000526020600020906005020160020160146101000a81548160ff0219169083151502179055505050565b60086020526000908152604090205460ff1681565b60606007805480602002602001604051908101604052809291908181526020016000905b82821015610669576000848152602090819020604080516060810182526003860290920180546001600160a01b03168352600181015493830193909352600283018054929392918401916105d890611286565b80601f016020809104026020016040519081016040528092919081815260200182805461060490611286565b80156106515780601f1061062657610100808354040283529160200191610651565b820191906000526020600020905b81548152906001019060200180831161063457829003601f168201915b50505050508152505081526020019060010190610585565b50505050905090565b60005490565b6007818154811061068857600080fd5b60009182526020909120600390910201805460018201546002830180546001600160a01b0390931694509092916106be90611286565b80601f01602080910402602001604051908101604052809291908181526020018280546106ea90611286565b80156107375780601f1061070c57610100808354040283529160200191610737565b820191906000526020600020905b81548152906001019060200180831161071a57829003601f168201915b5050505050905083565b6000806000806000606080606060008060025447600080549050600954600160009054906101000a90046001600160a01b031660036004600560078054905060065484805461078f90611286565b80601f01602080910402602001604051908101604052809291908181526020018280546107bb90611286565b80156108085780601f106107dd57610100808354040283529160200191610808565b820191906000526020600020905b8154815290600101906020018083116107eb57829003601f168201915b5050505050945083805461081b90611286565b80601f016020809104026020016040519081016040528092919081815260200182805461084790611286565b80156108945780601f1061086957610100808354040283529160200191610894565b820191906000526020600020905b81548152906001019060200180831161087757829003601f168201915b505050505093508280546108a790611286565b80601f01602080910402602001604051908101604052809291908181526020018280546108d390611286565b80156109205780601f106108f557610100808354040283529160200191610920565b820191906000526020600020905b81548152906001019060200180831161090357829003601f168201915b50505050509250995099509950995099509950995099509950995090919293949596979899565b6001546001600160a01b031681565b600b5490565b6003805461096990611286565b80601f016020809104026020016040519081016040528092919081815260200182805461099590611286565b80156109e25780601f106109b7576101008083540402835291602001916109e2565b820191906000526020600020905b8154815290600101906020018083116109c557829003601f168201915b505050505081565b600081815481106109fa57600080fd5b9060005260206000209060050201600091509050806000018054610a1d90611286565b80601f0160208091040260200160405190810160405280929190818152602001828054610a4990611286565b8015610a965780601f10610a6b57610100808354040283529160200191610a96565b820191906000526020600020905b815481529060010190602001808311610a7957829003601f168201915b5050505060018301546002840154600390940154929390926001600160a01b0382169250600160a01b90910460ff169085565b60095481565b6001546001600160a01b03163314610ae657600080fd5b60008054600101808255818052600b5482918110610b1457634e487b7160e01b600052603260045260246000fd5b600091825260209182902086516005909202019250610b3891839190870190610e3c565b5060018181018490556002820180546001600160a01b0319166001600160a01b0385161760ff60a01b19169055600060038301819055600b8054909190610b8090849061124e565b909155505050505050565b6004805461096990611286565b600b5481565b60025481565b600a5481565b6005805461096990611286565b60065481565b604080516060810182526001600160a01b03858116825260208083018681529383018581526007805460018101825560009190915284517fa66cc928b5edb82af9bd49922954155ab7b0942694bea4ce44661d9a8736c688600390920291820180546001600160a01b0319169190951617845594517fa66cc928b5edb82af9bd49922954155ab7b0942694bea4ce44661d9a8736c68986015551805193948594610c8f937fa66cc928b5edb82af9bd49922954155ab7b0942694bea4ce44661d9a8736c68a9092019290910190610e3c565b50505050505050565b6002543411610ca657600080fd5b336000908152600860205260408120805460ff191660011790556007545b80821015610d365760078281548110610ced57634e487b7160e01b600052603260045260246000fd5b60009182526020909120600390910201546001600160a01b0316331415610d245760098054906000610d1e836112c1565b91905055505b610d2f60018361124e565b9150610cc4565b5050565b3360009081526008602052604090205460ff16610d5657600080fd5b60008181548110610d7757634e487b7160e01b600052603260045260246000fd5b600091825260208083203384526004600590930201919091019052604090205460ff1615610da457600080fd5b600160008281548110610dc757634e487b7160e01b600052603260045260246000fd5b60009182526020808320338452600592909202909101600401905260408120805460ff191692151592909217909155805482908110610e1657634e487b7160e01b600052603260045260246000fd5b600091825260208220600360059092020101805491610e34836112c1565b919050555050565b828054610e4890611286565b90600052602060002090601f016020900481019282610e6a5760008555610eb0565b82601f10610e8357805160ff1916838001178555610eb0565b82800160010185558215610eb0579182015b82811115610eb0578251825591602001919060010190610e95565b50610ebc929150610ec0565b5090565b5b80821115610ebc5760008155600101610ec1565b80356001600160a01b0381168114610eec57600080fd5b919050565b600082601f830112610f01578081fd5b813567ffffffffffffffff80821115610f1c57610f1c6112f2565b604051601f8301601f191681016020018281118282101715610f4057610f406112f2565b604052828152848301602001861015610f57578384fd5b82602086016020830137918201602001929092529392505050565b600060208284031215610f83578081fd5b610f8c82610ed5565b9392505050565b600080600060608486031215610fa7578182fd5b610fb084610ed5565b925060208401359150604084013567ffffffffffffffff811115610fd2578182fd5b610fde86828701610ef1565b9150509250925092565b600080600060608486031215610ffc578283fd5b833567ffffffffffffffff811115611012578384fd5b61101e86828701610ef1565b9350506020840135915061103460408501610ed5565b90509250925092565b60006020828403121561104e578081fd5b5035919050565b60008151808452815b8181101561107a5760208185018101518683018201520161105e565b8181111561108b5782602083870101525b50601f01601f19169290920160200192915050565b6001600160a01b0391909116815260200190565b600060018060a01b0385168252836020830152606060408301526110db6060830184611055565b95945050505050565b60208082528251828201819052600091906040908185019080840286018301878501865b8381101561115b57888303603f19018552815180516001600160a01b031684528781015188850152860151606087850181905261114781860183611055565b968901969450505090860190600101611108565b509098975050505050505050565b901515815260200190565b600060208252610f8c6020830184611055565b600060a0825261119a60a0830188611055565b6020830196909652506001600160a01b039390931660408401529015156060830152608090910152919050565b90815260200190565b60006101408c83528b60208401528a604084015289606084015260018060a01b03891660808401528060a084015261120a81840189611055565b905082810360c084015261121e8188611055565b905082810360e08401526112328187611055565b6101008401959095525050610120015298975050505050505050565b60008219821115611261576112616112dc565b500190565b60008261128157634e487b7160e01b81526012600452602481fd5b500490565b60028104600182168061129a57607f821691505b602082108114156112bb57634e487b7160e01b600052602260045260246000fd5b50919050565b60006000198214156112d5576112d56112dc565b5060010190565b634e487b7160e01b600052601160045260246000fd5b634e487b7160e01b600052604160045260246000fdfea2646970667358221220ca04df83c40ef50aff390a8c18dfe77d2480aa95f7ca5ab22817c8b05674db1d64736f6c63430008000033",
  "linkReferences": {},
  "deployedLinkReferences": {}
}